:020000040800F2
:100000000000022079380008C9380008C938000803
:10001000C9380008C9380008C938000800000000C5
:10002000000000000000000000000000C9380008C7
:10003000C938000800000000C9380008B5230008CE
:10004000C9380008C9380008C9380008C93800088C
:10005000C9380008C9380008C9380008C93800087C
:10006000C9380008C9380008C9380008C93800086C
:10007000C9380008C9380008C9380008C93800085C
:10008000C9380008C9380008C9380008C93800084C
:10009000C9380008C9380008C9380008C93800083C
:1000A000C9380008F1280008C938000815290008D7
:1000B000C1360008C9380008C9380008C938000826
:1000C000C9380008C9380008C9380008C93800080C
:1000D000C9380008C9380008C9380008C9380008FC
:1000E000C9380008C9380008C9380008C9380008EC
:1000F000C9380008C9380008C9380008C9380008DC
:10010000C9380008C9380008C9380008C9380008CB
:10011000C9380008C9380008C9380008C9380008BB
:10012000C9280008C9380008D5300008C9380008B7
:10013000C9380008C9380008C9380008C93800089B
:10014000C9380008C9380008C9380008C93800088B
:10015000C9380008C938000859300008C9380008F3
:10016000C9380008C9380008C9380008C93800086B
:10017000C9380008C9380008C93800080000000064
:08018000C9380008C938000865
:1001C00010B5054C237833B9044B13B10448AFF391
:1001D00000800123237010BDD8090020000000001A
:1001E00000B4000808B5034B1BB103490348AFF343
:1001F000008008BD00000000DC09002000B40008F9
:1002000081F0004102E000BF83F0004330B54FEAC7
:1002100041044FEA430594EA050F08BF90EA020F34
:100220001FBF54EA000C55EA020C7FEA645C7FEAC7
:10023000655C00F0E2804FEA5454D4EB5555B8BFEA
:100240006D420CDD2C4480EA020281EA030382EA5B
:10025000000083EA010180EA020281EA0303362DED
:1002600088BF30BD11F0004F4FEA01314FF4801CC0
:100270004CEA113102D0404261EB410113F0004FD2
:100280004FEA03334CEA133302D0524263EB430389
:1002900094EA050F00F0A780A4F10104D5F1200E27
:1002A0000DDB02FA0EFC22FA05F2801841F1000182
:1002B00003FA0EF2801843FA05F359410EE0A5F156
:1002C00020050EF1200E012A03FA0EFC28BF4CF087
:1002D000020C43FA05F3C01851EBE37101F000453D
:1002E00007D54FF0000EDCF1000C7EEB00006EEB4A
:1002F0000101B1F5801F1BD3B1F5001F0CD34908D4
:100300005FEA30004FEA3C0C04F101044FEA44522A
:1003100012F5800F80F09A80BCF1004F08BF5FEAB1
:10032000500C50F1000041EB045141EA050130BD91
:100330005FEA4C0C404141EB010111F4801FA4F134
:100340000104E9D191F0000F04BF01460020B1FA89
:1003500081F308BF2033A3F10B03B3F120020CDAC1
:100360000C3208DD02F1140CC2F10C0201FA0CF09F
:1003700021FA02F10CE002F11402D8BFC2F1200C04
:1003800001FA02F120FA0CFCDCBF41EA0C019040BA
:10039000E41AA2BF01EB0451294330BD6FEA040403
:1003A0001F3C1CDA0C340EDC04F11404C4F12002EE
:1003B00020FA04F001FA02F340EA030021FA04F300
:1003C00045EA030130BDC4F10C04C4F1200220FA57
:1003D00002F001FA04F340EA0300294630BD21FA95
:1003E00004F0294630BD94F0000F83F4801306BF5B
:1003F00081F480110134013D4EE77FEA645C18BF4F
:100400007FEA655C29D094EA050F08BF90EA020FE5
:1004100005D054EA000C04BF1946104630BD91EADD
:10042000030F1EBF0021002030BD5FEA545C05D1E0
:100430004000494128BF41F0004130BD14F580041F
:100440003CBF01F5801130BD01F0004545F0FE4193
:1004500041F470014FF0000030BD7FEA645C1ABFC8
:10046000194610467FEA655C1CBF0B46024650EAFF
:10047000013406BF52EA033591EA030F41F400212B
:1004800030BD00BF90F0000F04BF0021704730B5B1
:100490004FF4806404F132044FF000054FF0000186
:1004A00050E700BF90F0000F04BF0021704730B547
:1004B0004FF4806404F1320410F0004548BF40421C
:1004C0004FF000013EE700BF42004FEAE2014FEA71
:1004D00031014FEA02701FBF12F07F4393F07F4F4C
:1004E00081F06051704732F07F4208BF704793F04F
:1004F0007F4F04BF41F40021704730B54FF4607462
:1005000001F0004521F000411CE700BF50EA010264
:1005100008BF704730B54FF000050AE050EA01020D
:1005200008BF704730B511F0004502D5404261EB7D
:1005300041014FF4806404F132045FEA915C3FF4BE
:10054000D8AE4FF003025FEADC0C18BF03325FEA5B
:10055000DC0C18BF033202EBDC02C2F1200300FA0C
:1005600003FC20FA02F001FA03FE40EA0E0021FA31
:1005700002F11444BDE600BF844641EA000313F0D3
:1005800003036DD1403A41D351F8043B40F8043B9A
:1005900051F8043B40F8043B51F8043B40F8043B5D
:1005A00051F8043B40F8043B51F8043B40F8043B4D
:1005B00051F8043B40F8043B51F8043B40F8043B3D
:1005C00051F8043B40F8043B51F8043B40F8043B2D
:1005D00051F8043B40F8043B51F8043B40F8043B1D
:1005E00051F8043B40F8043B51F8043B40F8043B0D
:1005F00051F8043B40F8043B51F8043B40F8043BFD
:1006000051F8043B40F8043B403ABDD2303211D39C
:1006100051F8043B40F8043B51F8043B40F8043BDC
:1006200051F8043B40F8043B51F8043B40F8043BCC
:10063000103AEDD20C3205D351F8043B40F8043B9C
:10064000043AF9D2043208D0D2071CBF11F8013B9A
:1006500000F8013B01D30B8803806046704700BF60
:10066000082A13D38B078DD010F003038AD0C3F16F
:100670000403D21ADB071CBF11F8013B00F8013B51
:1006800080D331F8023B20F8023B7BE7043AD9D310
:10069000013A11F8013B00F8013BF9D20B780370E5
:1006A0004B7843708B788370604670470000000081
:1006B000000000000000000000000000000000003A
:1006C00090F800F06DE9024520F007016FF0000C92
:1006D00010F0070491F820F040F049804FF000043A
:1006E0006FF00700D1E9002391F840F000F1080015
:1006F00082FA4CF2A4FA8CF283FA4CF3A2FA8CF34D
:100700004BBBD1E9022382FA4CF200F10800A4FAB3
:100710008CF283FA4CF3A2FA8CF3E3B9D1E9042307
:1007200082FA4CF200F10800A4FA8CF283FA4CF33E
:10073000A2FA8CF37BB9D1E9062301F1200182FAF8
:100740004CF200F10800A4FA8CF283FA4CF3A2FAFE
:100750008CF3002BC6D0002A04BF04301A4612BA0C
:10076000B2FA82F2FDE8024500EBD2007047D1E90F
:10077000002304F00305C4F100004FEAC50514F09E
:10078000040F91F840F00CFA05F562EA05021CBF6F
:1007900063EA050362464FF00004A9E70000000089
:1007A00001F0FF01102A2BDB10F0070F08D010F822
:1007B000013B013A8B422DD010F0070F42B3F6D126
:1007C000F0B441EA012141EA014122F007047FF03F
:1007D00000070023F0E80256083C85EA010586EA96
:1007E000010685FA47F5A3FA87F586FA47F6A5FAD2
:1007F00087F68EB9EED1F0BC01F0FF0102F00702DE
:1008000032B110F8013B013A83EA010313B1F8D188
:100810000020704701387047002D06BF3546033869
:10082000073815F0010F07D1013015F4807F02BFA2
:10083000013015F4C03F0130F0BC0138704700BFF3
:1008400070B54FF0FF0C4CF4E06C1CEA11541DBF66
:100850001CEA135594EA0C0F95EA0C0F00F0DEF831
:100860002C4481EA030621EA4C5123EA4C5350EA16
:10087000013518BF52EA033541F4801143F4801367
:1008800038D0A0FB02CE4FF00005E1FB02E506F0F8
:100890000042E0FB03E54FF00006E1FB03569CF04D
:1008A000000F18BF4EF0010EA4F1FF04B6F5007F53
:1008B00064F5407404D25FEA4E0E6D4146EB0606C5
:1008C00042EAC62141EA55514FEAC52040EA5E504E
:1008D0004FEACE2EB4F1FD0C88BFBCF5E06F1ED8F8
:1008E000BEF1004F08BF5FEA500E50F1000041EB2F
:1008F000045170BD06F0004646EA010140EA0200DC
:1009000081EA0301B4EB5C04C2BFD4EB0C0541EAFD
:10091000045170BD41F480114FF0000E013C00F312
:10092000AB8014F1360FDEBF002001F0004170BD36
:10093000C4F10004203C35DA0C341BDC04F114044F
:10094000C4F1200500FA05F320FA04F001FA05F2DB
:1009500040EA020001F0004221F0004110EBD370A8
:1009600021FA04F642EB06015EEA430E08BF20EAD4
:10097000D37070BDC4F10C04C4F1200500FA04F377
:1009800020FA05F001FA04F240EA020001F0004109
:1009900010EBD37041F100015EEA430E08BF20EA7C
:1009A000D37070BDC4F1200500FA05F24EEA020EC4
:1009B00020FA04F301FA05F243EA020321FA04F0F3
:1009C00001F0004121FA04F220EA020000EBD370AA
:1009D0005EEA430E08BF20EAD37070BD94F0000FAA
:1009E0000FD101F00046400041EB010111F4801FDE
:1009F00008BF013CF7D041EA060195F0000F18BF8F
:100A0000704703F00046520043EB030313F4801FCA
:100A100008BF013DF7D043EA0603704794EA0C0F84
:100A20000CEA135518BF95EA0C0F0CD050EA41069A
:100A300018BF52EA4306D1D181EA030101F0004117
:100A40004FF0000070BD50EA410606BF104619463F
:100A500052EA430619D094EA0C0F02D150EA01364B
:100A600013D195EA0C0F05D152EA03361CBF10468C
:100A700019460AD181EA030101F0004141F0FE412B
:100A800041F470014FF0000070BD41F0FE4141F4AF
:100A9000780170BD70B54FF0FF0C4CF4E06C1CEAAF
:100AA00011541DBF1CEA135594EA0C0F95EA0C0F64
:100AB00000F0A7F8A4EB050481EA030E52EA03351F
:100AC0004FEA013100F088804FEA03334FF0805540
:100AD00045EA131343EA12634FEA022245EA11156D
:100AE00045EA10654FEA00260EF000419D4208BF1E
:100AF000964244F1FD0404F5407402D25B084FEACB
:100B00003202B61A65EB03055B084FEA32024FF476
:100B100080104FF4002CB6EB020E75EB030E22BFD3
:100B2000B61A754640EA0C005B084FEA3202B6EB93
:100B3000020E75EB030E22BFB61A754640EA5C0042
:100B40005B084FEA3202B6EB020E75EB030E22BFD2
:100B5000B61A754640EA9C005B084FEA3202B6EBD3
:100B6000020E75EB030E22BFB61A754640EADC0092
:100B700055EA060E18D04FEA051545EA16754FEAF4
:100B800006164FEAC30343EA52734FEAC2025FEA12
:100B90001C1CC0D111F4801F0BD141EA00014FF0A1
:100BA00000004FF0004CB6E711F4801F04BF014372
:100BB0000020B4F1FD0C88BFBCF5E06F3FF6AFAE8E
:100BC000B5EB030C04BFB6EB020C5FEA500C50F11E
:100BD000000041EB045170BD0EF0004E4EEA1131A1
:100BE00014EB5C04C2BFD4EB0C0541EA045170BDA8
:100BF00041F480114FF0000E013C90E645EA060EEC
:100C00008DE60CEA135594EA0C0F08BF95EA0C0F19
:100C10003FF43BAF94EA0C0F0AD150EA01347FF461
:100C200034AF95EA0C0F7FF425AF104619462CE738
:100C300095EA0C0F06D152EA03353FF4FDAE10469B
:100C4000194622E750EA410618BF52EA43067FF4EC
:100C5000C5AE50EA41047FF40DAF52EA43057FF47C
:100C6000EBAE12E74FF0FF3C06E000BF4FF0010C87
:100C700002E000BF4FF0010C4DF804CD4FEA410CEB
:100C80007FEA6C5C4FEA430C18BF7FEA6C5C1BD0B8
:100C900001B050EA410C0CBF52EA430C91EA030F39
:100CA00002BF90EA020F0020704710F1000F91EA96
:100CB000030F58BF994208BF90422CBFD8176FEA64
:100CC000E37040F0010070474FEA410C7FEA6C5C32
:100CD00002D150EA013C07D14FEA430C7FEA6C5C39
:100CE000D6D152EA033CD3D05DF8040B704700BF65
:100CF0008446104662468C461946634600E000BFB3
:100D000001B5FFF7B7FF002848BF10F1000F01BD84
:100D10004DF808EDFFF7F4FF0CBF012000205DF84F
:100D200008FB00BF4DF808EDFFF7EAFF34BF0120D4
:100D300000205DF808FB00BF4DF808EDFFF7E0FF6D
:100D400094BF012000205DF808FB00BF4DF808EDBE
:100D5000FFF7CEFF94BF012000205DF808FB00BF25
:100D60004DF808EDFFF7C4FF34BF012000205DF807
:100D700008FB00BF4FEA410C7FEA6C5C02D150EAED
:100D8000013C0AD14FEA430C7FEA6C5C02D152EA83
:100D9000033C02D14FF0000070474FF00100704754
:100DA0004FEA410212F5001215D211D56FF4787393
:100DB000B3EB625212D94FEAC12343F0004343EA36
:100DC000505311F0004F23FA02F018BF4042704711
:100DD0004FF00000704750EA013005D111F000409B
:100DE00008BF6FF0004070474FF00000704700BF31
:100DF0004A0011D212F5001211D20DD56FF478739A
:100E0000B3EB62520ED44FEAC12343F0004343EAEE
:100E1000505323FA02F070474FF00000704750EA39
:100E2000013002D14FF0FF3070474FF000007047A3
:100E30004FEA4102B2F1E04324BFB3F5001CDCF1FC
:100E4000FE5C0DD901F0004C4FEAC0024CEA507034
:100E5000B2F1004F40EB830008BF20F00100704763
:100E600011F0804F21D113F13872BCBF01F0004066
:100E7000704741F480114FEA5252C2F11802C2F198
:100E8000200C10FA0CF320FA02F018BF40F0010019
:100E90004FEAC1234FEAD32303FA0CFC40EA0C00CB
:100EA00023FA02F34FEA4303CCE77FEA625307D108
:100EB00050EA01331EBF4FF0FE4040F4400070473F
:100EC00001F0004040F0FE4040F40000704700BFD9
:100ED00053B94AB9002908BF00281CBF4FF0FF31A1
:100EE0004FF0FF3000F072B9ADF1080C6DE904CE9F
:100EF00000F006F8DDF804E0DDE9022304B07047F5
:100F00002DE9F047089E04468846002B4BD18A42C3
:100F1000154667D9B2FA82F24AB1C2F1200701FA46
:100F200002F320FA07F7954047EA030894404FEA96
:100F3000154E230CB8FBFEF71FFA85FC0EFB178835
:100F400043EA084307FB0CF1994209D9EB1807F172
:100F5000FF3080F01B81994240F21881023F2B4400
:100F60005B1AA4B2B3FBFEF00EFB103344EA034459
:100F700000FB0CFCA44509D92C1900F1FF3380F0CB
:100F80000781A44540F2048102382C4440EA07401E
:100F9000A4EB0C0400271EB1D4400023C6E9004393
:100FA0003946BDE8F0878B4209D9002E00F0EB806E
:100FB0000027C6E9000138463946BDE8F087B3FA94
:100FC00083F7002F47D18B4202D3824200F2FA808E
:100FD000841A61EB030301209846002EE0D0C6E995
:100FE0000048DDE702B9FFDEB2FA82F2002A40F0E3
:100FF0008F80491B4FEA154E1FFA85F80127B1FB78
:10100000FEFC230C0EFB1C1143EA014308FB0CF110
:10101000994207D9EB180CF1FF3002D2994200F245
:10102000CD808446591AA3B2B1FBFEF00EFB10141A
:1010300043EA044408FB00F8A04507D92C1900F145
:10104000FF3302D2A04500F2B6801846A4EB080494
:1010500040EA0C409FE7C7F1200CBB4022FA0CFE8F
:101060004EEA030E01FA07F420FA0CF521FA0CF30C
:101070004FEA1E482543B3FBF8F92C0C08FB193343
:101080001FFA8EFA44EA034309FB0AF49C4202FA6F
:1010900007F200FA07F10BD91EEB030309F1FF3049
:1010A00080F087809C4240F28480A9F10209734459
:1010B0001B1BADB2B3FBF8F008FB103345EA034449
:1010C00000FB0AFAA24508D91EEB040400F1FF3325
:1010D0006BD2A24569D90238744440EA0940A0FBAA
:1010E0000289A4EB0A044C45C2464B4654D351D066
:1010F000002E69D0B1EB0A0564EB030404FA0CFC82
:10110000FD40FC404CEA0505C6E90054002747E7CE
:10111000C2F1200320FA03F7954001FA02F021FA08
:1011200003F34FEA154E3843010CB3FBFEF71FFAE9
:1011300085F80EFB173341EA034107FB08F38B42A6
:1011400004FA02F407D9691807F1FF3C2FD28B4249
:101150002DD9023F2944CB1A81B2B3FBFEF00EFB1E
:10116000103341EA034100FB08F38B4207D96918A9
:1011700000F1FF3C17D28B4215D902382944C91A15
:1011800040EA07473BE73746304609E70746E7E6C8
:101190001846FBE64145ABD2B8EB020A69EB0E02FA
:1011A00001381346A4E76046E9E7184695E7674625
:1011B000D1E781467CE702382C4447E7ACF1020CCA
:1011C0002B442FE7384608E73746E9E6704700BF6B
:1011D00030B4124B124C134AA4689B6892682343A4
:1011E0001343DB0717D4D1E900423AB943680E49EB
:1011F00019402143416030BC0120704745680A4BCB
:101200002243D1E902412B40134323430B43436064
:1012100030BC01207047002030BC704700210140E5
:101220000020014000220140E010FCFF8368DB0742
:1012300013D430B4D1E9015344680A6824F04071F2
:101240001A4321F480710A434260836823F40063E7
:101250002B43836030BC012070470020704700BFE3
:101260008368DB0722D470B44C68BCB9436823F4AC
:101270006843436082680E4BCE680D6913400A686C
:1012800033432B4302F0706213438360C36A23F439
:1012900070032343C36270BC0120704742688B68AF
:1012A00022F4684222431A434260E3E70020704779
:1012B000FDFCFFC02DE9F04F0C6894FAA4F24E68D3
:1012C000B2FA82F234FA02F306F1FF3E79D04FF01F
:1012D000010C03274FF00F0803E0013234FA02F348
:1012E0006FD00CFA02F32340F7D0D0F8009093FAB5
:1012F000A3FABAFA8AFA93FAA3F5B5FA85F54FEA92
:101300004A0A6D0007FA0AFA06FA05F529EA0A09F7
:1013100049EA0505BEF1010F056016D8856893FA04
:10132000A3F9B9FA89F993FAA3FA4FEA490907FA36
:1013300009F925EA0909BAFA8AFA8D684FEA4A0AD0
:1013400005FA0AF549EA05058560C56893FAA3F927
:10135000B9FA89F993FAA3FA4FEA490907FA09F9A0
:1013600025EA0909BAFA8AFA0D694FEA4A0A05FA22
:101370000AF549EA0505022EC560AED193FAA3FA33
:10138000BAFA8AFABAF1070F4FEA1325D1F8149086
:1013900025DC056A93FAA3FABAFA8AFA93FAA3F358
:1013A000B3FA83F34FEA8A0A9B0008FA0AFA09FAA9
:1013B00003F325EA0A052B430132036234FA02F3F0
:1013C0008FD1BEF1010F07D8CA68436802FB04F24F
:1013D00023EA0404144344600120BDE8F08FD0F8F0
:1013E00024A095FAA5FBBBFA8BFB95FAA5F3B3FAFB
:1013F00083F34FEA8B0B9B0008FA0BFB09FA03F30C
:101400002AEA0B0A4AEA0303436266E71149124BD0
:101410004A6810B4114C02F48002002A08BF234627
:10142000082803D000205DF8044B70474C684868DA
:101430004A68C2F30142C0F38810013204F03F0150
:101440005200B3FBF1F35DF8044B00FB03F0B0FB7B
:10145000F2F070470038024000127A000024F400D5
:10146000064B986800F00C00042805D0082801D12C
:10147000FFF7CCBF0248704702487047003802406F
:101480000024F40000127A0038B50446FFF7E8FFA4
:101490000B4B20609A680B4D0B49C2F30312AA5CF8
:1014A000D04060609A68C2F382228A5C20FA02F21D
:1014B000A2609B68C3F34233CB5CD840E06038BD88
:1014C00000380240A0B60008B0B6000870B4314D34
:1014D00003688C680A88A8424FD0B0F1804F29D0A9
:1014E000A5F57C45A84237D005F58065A84233D0E4
:1014F00005F58065A8422FD005F57845A8422BD088
:1015000005F57055A84213D005F58065A8420FD0A7
:1015100005F58065A8420BD0A5F59835A84207D0FF
:1015200005F58065A84203D005F58065A84209D17C
:10153000C96804E04D68C96823F070032B4323F4A5
:1015400040730B430360C4628262436943F001034A
:10155000436170BC012070474D68CE6823F0700372
:101560002B430D4D23F440733343A8420360C46200
:101570008262EAD10B7C0363E7E74E68CD6823F013
:101580007003334323F440732B430360C4628262CD
:10159000F0E700BF00000140000401401029F0B452
:1015A000034679D050D9B1F5807F29D0B1F5805F5D
:1015B0006FD1006A14696C4D20F48050D2E9006745
:1015C0001862196A586821F4005141EA0431DC6953
:1015D00021F4805124F4E644AB4241EA073144EA65
:1015E000062400F0928005F58065AB4200F08D8006
:1015F000D2685860DC6101201A641962F0BC70473F
:10160000046A1069584D24F48074D2E900671C62A2
:10161000196A5C6821F4007141EA0021D86921F45B
:10162000807120F07300AB4241EA072146EA0006D0
:1016300056D04E48834253D0D2685C600120DE61B0
:10164000DA63F0BC19627047012922D1046A10697B
:10165000454D24F00104D2E900671C62196A5C68F8
:1016600021F002010143986921F0010120F073008B
:10167000AB4241EA070146EA000661D03B4883429B
:101680005ED0D2685C6001209E615A63F0BC196232
:1016900070470020F0BC7047046A1069324D24F096
:1016A0001004D2E900671C62196A5C6821F020010D
:1016B00041EA0011986921F0100120F4E640AB42A4
:1016C00041EA071140EA062625D02848834222D065
:1016D000D2685C6001209E619A63F0BC1962704719
:1016E000D2E9050721F4006124F4805441EA802105
:1016F00044EA07149068D56921F4806124F4005409
:1017000041EA802144EA451496E7956920F4804037
:1017100040EA85106CE7D2E9050721F0800124F446
:10172000806441EA801144EA87049068D56921F019
:10173000400124F4006441EA801144EAC504C7E78B
:10174000D2E9050721F0080124F4807441EA800100
:101750003C439068D56921F0040124F4007441EA07
:10176000800144EA45048CE7000001400004014088
:1017700030B4D1E901450B7B0A682B4323F4806325
:10178000234323F400631343CA8923F48053D1E92C
:101790000441134323F40053234323F440430B43F6
:1017A000436430BC01207047C3689B0401D500200E
:1017B000704730B54B6804460D46D1E90310E26826
:1017C0000B43A969034322F416420B4322F00C0297
:1017D0001343E3602269AB68696922F440521A43FB
:1017E0002261636923F440730B4385B063616846EB
:1017F000FFF74AFE2B4B9C4218D02B4B9C420ED03D
:101800002A4B9C420BD003F54C439C420ED0A3F5CF
:1018100048439C4203D003F580639C4203D1029B62
:101820000BB12A6822B9002005B030BD039BF7E751
:10183000A96903EB8303B1F5004F03EB830314D0D5
:101840001B499200B3FBF2F3A1FB0302520964208F
:1018500000FB12331B013233A1FB0331130103EBF5
:1018600051139BB2A3600120DEE711485200B3FB85
:10187000F2F3A0FB03125109642202FB1133DB00D7
:101880003233A0FB0323C3F34F1303F007025B00C3
:1018900002EB011203F4F87313449BB2A36001201E
:1018A000C2E700BF00100140004400400048004073
:1018B0001F85EB51054A064BA2FB00208009013829
:1018C00000210522586099601A607047D34D62105C
:1018D00010E000E0014B1860704700BF24000020BA
:1018E000994B9A485A6C2DE9F04342F480725A643D
:1018F0005A6C974F974E984D97B002F480720392AE
:10190000039A5A6C42F400725A645A6C02F40072E0
:101910000292029A5A6C42F480625A645B6C03F43D
:1019200080634FF0000801933E22032310A9CDE904
:101930001023019CCDF85080FFF7BCFC874B8849F1
:10194000884A9960DA601A68874922F060621A60F2
:101950001A6822F0C0021A601A6822F4403242F477
:1019600080321A601A6822F4907242F480721A600F
:101970001A6822F400721A601A6842F480621A60CF
:101980001A6822F4C05242F400621A601A6822F403
:10199000C04242F400521A605A68120C120442F01B
:1019A00003025A605A6922F004025A611A68202020
:1019B00042F010021A6088601A6842F001021A6050
:1019C00004A93846CDE90488CDF81880FFF72EFC2D
:1019D00004A93046FFF72AFC04A92846FFF726FC95
:1019E0004FF4407402230BA93846CDE90D83CDE9AD
:1019F0000B880F94FFF734FC0BA93046FFF730FC3F
:101A00000BA92846FFF72CFC4FF4403C16224FF45C
:101A1000C04307A95548CDF82880CDE907C20993EE
:101A2000FFF7D6FB94FAA4F34FF4007CB3FA83F3E8
:101A30002CFA03F34E4951F8232022F01F0242F002
:101A4000010241F823204FF0007191FAA1FEBEFA85
:101A50008EFE21FA0EFEDFF81C914FF0F87393FA18
:101A6000A3F8B8FA88F293FAA3F04FF4401828FAD2
:101A700002F8072059F82E2000FA08F822EA080296
:101A800049F82E2094FAA4FEBEFA8EFE2CFA0EFE21
:101A9000DFF8E48058F82E2022F01F0242F0020204
:101AA00048F82E2091FAA1FEBEFA8EFE21FA0EFE13
:101AB00009F5807993FAA3F8B8FA88F293FAA3F8B3
:101AC0004FF4C00828FA02F859F82E2000FA08F856
:101AD00022EA080249F82E2094FAA4F4B4FA84F415
:101AE0002CFA04F4DFF894C05CF8242022F01F02E2
:101AF00042F003024CF8242091FAA1F2B2FA82F2E9
:101B000021FA02F2ACF1200C93FAA3F1B1FA81F4BC
:101B100093FAA3F34FF410015CF82230E1408840BF
:101B200023EA00004CF82200BB6843F00103BB60CD
:101B3000B36843F00103B360AB6843F00103AB60EB
:101B400017B0BDE8F08300BF00380240000002403B
:101B500000200140002101400022014010640240A9
:101B600008230140380A002000640240002301409D
:101B70002C2001400C2001402C2101402C2201404E
:101B8000F8B50D4C0D480E4D0E4F01F001FA04F161
:101B900030060D4802E0D4E903050C3401F0F8F9F1
:101BA000202001F0A7F9284601F0F2F9384601F0AB
:101BB000EFF9B442EFD1F8BD5CB40008DCB4000822
:101BC0002CB40008ACB50008D8B4000810B5054C1A
:101BD000054A0649204601F009FF2046BDE81040AD
:101BE00001F0D6B9580A0020440A002088B5000840
:101BF00038B50C6805462046FEF762FD21460246D0
:101C00002868BDE8384001F041BF00BF10B5044668
:101C1000084801F0BDF9206801F0BAF9202001F070
:101C200069F9606801F0B4F90348BDE8104001F0BB
:101C3000AFB900BFB8B50008ACB5000810B582B0A8
:101C400004460DF106020846144901F0F1FE012890
:101C500008D1BDF80630642B09D86BB9104A13605F
:101C600002B010BD2046FFF7D1FF02B010BD0D48F5
:101C700001F08EF902B010BD09490B484FF4FA6229
:101C800092FBF3F30B6001F083F9084801F080F94F
:101C90000A2001F02FF902B010BD00BF60B50008A6
:101CA000400A002064B500089CB500084CB4000848
:101CB00010B52E4B1B78032B82B045D9044601AAE0
:101CC00008462B4901F0B4FE012838D1DDED017A38
:101CD000F5EEC07AF1EE10FA3CDB264B9FED267A4A
:101CE0001B68DFED265A2649264C06EE903AF8EEA0
:101CF000666A27EE876A87EEA65A67EEA67A65EED1
:101D0000256A67EE877A16EE900AFCEEE77A17EE00
:101D1000902A92B2934228BF13464B638B63CB63E6
:101D200084ED006AFEF7D0FB02460B4616481749C1
:101D300001F05CFE144801F02BF902B010BD204602
:101D4000FFF764FF02B010BD114B186801F020F9D5
:101D500002B010BD9FED097AF4EEC77AF1EE10FAE9
:101D6000BBD90C4801F014F9ECE700BF3E0A002093
:101D700098B40008200B00200AD7233C0000C8427A
:101D800000080040640C0020580A0020BCB4000881
:101D9000140000209CB400082DE9F843164DDFF82C
:101DA0005C908846074642462946384601F06EFE5A
:101DB00000244E46013458B1052C19D056F80C5F5A
:101DC00042462946384601F061FE01340028F3D12D
:101DD000052C0ED004EB4404424659F82410384632
:101DE00001F054FE002808BF00252846BDE8F8830E
:101DF00000252846BDE8F883D8B400085CB4000884
:101E000008B5064801F0C4F820220021044801F07A
:101E1000A3FD044B00221A6008BD00BFB0B5000846
:101E2000980A0020B80A002030B5314B314C1868B0
:101E3000314D83B0FEF748FB304ACDE90001294619
:101E4000204601F0D3FD204601F0A2F82C4A2D4B8C
:101E500011782D4A53F821302C49204601F0C6FD57
:101E6000204601F095F82A4B1868FEF72DFB294A09
:101E7000CDE900012946204601F0B8FD204601F0D9
:101E800087F8254B1868400807EE900AF8EEE77AC5
:101E900017EE900AFEF718FB204ACDE9000129460B
:101EA000204601F0A3FD204601F072F81C4B1D4AAC
:101EB0001B681D49204601F099FD204601F068F895
:101EC0001A4BDFED1B7A93ED007A67EE277A17EE57
:101ED000900AFEF7F9FA174ACDE900012946204693
:101EE00001F084FD204603B0BDE8304001F050B859
:101EF000440B0020580A0020F8B40008F4B400088D
:101F00003E0A00200000002008B5000814B50008B3
:101F1000F80A002020B500084C0B002030B500085E
:101F2000EC0A00203CB5000848B50008640C00200D
:101F30000000C84254B500082DE9F041634D2B68FC
:101F400086B043B1624A1268B2FBF3F403FB142477
:101F5000002C00F09B805F4C5F4D604E00F0F4FF62
:101F600020B300F0FFFF2368591CC0B22029E854B9
:101F700021601ED0002942D00A2800F0A4800D283C
:101F800000F0A180092843D0032835D07F2864D0F1
:101F9000A0F120035E2B5DD9072000F0ABFF236882
:101FA000013B236000F0D0FF0028DAD106B0BDE885
:101FB000F0811F232360304600F0EAFF484800F01C
:101FC000E7FF2368474A0092E81800270C2300F82F
:101FD000017C0522444903950DEB0300CDE904770C
:101FE00001F074FC0746002869D00068FEF768FB22
:101FF000BB68291838469847FFF702FFAEE7092863
:1020000006D00328F8D07F28C2D101392160A5E786
:102010004B1E0022194628462360EA54FFF7BCFEF7
:10202000804600289AD0FEF74BFB41460746024601
:1020300028462760FEF7A0FA20227B1C2B48EA5591
:10204000236000F0A5FF284600F0A2FF284800F01A
:102050009FFF83E700F04EFF80E70129D5DD2B4489
:102060000022224803F8012C00F092FF284600F0DD
:102070008FFF202000F03EFF1C4800F089FF28461B
:1020800000F086FF2368023B236067E7194800F0F1
:102090007FFF2B6818484FF4FA6191FBF3F100F0D1
:1020A00083FF16492046FFF7BFFE154800F070FF7A
:1020B000094800F06DFF0E4800F06AFF4BE7114839
:1020C00000F066FF98E7012996DD74E7400A0020DA
:1020D000540A0020B80A0020980A0020ACB5000875
:1020E00058B40008F11B00085CB4000848B40008AC
:1020F00054B400089CB5000818B400082CB40008BB
:1021000030B4000834B4000808B5064800F040FFB9
:10211000054800F03DFF054800F03AFFBDE80840E3
:10212000FFF76EBE9CB500084CB40008A0B50008CF
:102130000D4A0E4B116B30B441F480011163126BE8
:1021400082B002F480020192019D10244FF0807051
:102150002021402283F83843586083F846139A6060
:1021600002B030BC704700BF0038024000E100E020
:102170002C4B2D481A6B2D4970B542F080021A6322
:102180001A6B8CB002F080020592059A1A6B42F02D
:1021900004021A631A6B02F004020492049A1A6B86
:1021A00042F001021A631A6B02F001020392039AD1
:1021B0001A6B42F002021A631A6B02F002020292D8
:1021C000029A1A6B42F008021A631B6B03F00803B1
:1021D0000193019B8161002406A94FF2FF030126B0
:1021E0000325CDE90636CDE908540A94FFF762F8D5
:1021F0000F48104B836140F2C31206A902230692D6
:102200000A930796CDE90854FFF754F80A484FF4AB
:102210000003836106A980230693FFF74BF80CB0F7
:1022200070BD00BF00380240000C02400000FFF00B
:10223000000402400000C30100000240154B164993
:10224000186A164A164D174C20F001001862186AD9
:1022500020F010001862186A20F4807018620B6A6F
:1022600023F010030B620B6A23F480730B624FF4AC
:1022700000004FF480334FF40031A86193614FF4B4
:10228000800591614FF0807300219561216090611C
:102290009361FEE700040040000800400004024093
:1022A0000000024064844042374A136823F00F0361
:1022B00043F0050310B51360136803F00F03052BFB
:1022C0005DD13249324B0A6842F480420A601A6892
:1022D00042F480321A601A689203FCD55C682D487B
:1022E0002D492B4A204001435960596821F440315F
:1022F0005960196841F08071196013689B01FCD521
:102300009368234923F0F0039360936823F4E05328
:1023100043F4A0539360936823F4604343F4204351
:102320009360936823F0030343F0020393608B6888
:1023300003F00C03082BFAD1184C1948FFF7BAFA2E
:102340002368174843F004032360FFF7C3FA154BD3
:10235000154A1B68A2FB0323DB09013BB3F1807F15
:1023600008D212496360F0200022072381F823007D
:10237000A26023600D4BA02283F8232010BD4FF4F0
:10238000AF710B48FFF75AFF003C0240007000405D
:10239000003802400080BFFF0769400010E000E005
:1023A000001C4E0E24000020D34D621000ED00E012
:1023B00090B600082F490B68B3F5FA6FF0B53DD918
:1023C00001230B6002202C4D2C4B2A68A3FB0243F7
:1023D0009B0803EB8303D31A2BD1294FDFF8C4C02A
:1023E0003E68DCF80040274ADFF8ACE01268DFED19
:1023F000267AA41B07EE104A244E254C3668DCF8DA
:1024000000C0C7F800C002EB82025200B8EE477A63
:10241000AEFB027227EE277AD209B2FBF6F207EE84
:10242000902AF8EEE77A1B4AC7EE276A1360C4EDDC
:10243000006A2B68086001332B60F0BD0F4A164C10
:10244000A2FB0302D208A4FB030402EB82024FF4B6
:10245000FA60E409B3EB420F00FB143403F101000E
:1024600002D10E4B01221A70002CACD10C4B012270
:102470001A70A8E7E00A0020540A0020CDCCCCCC8A
:10248000DC0A0020240000200000C842E40A0020EA
:10249000F80A00201C0B0020D34D6210690C0020AC
:1024A000EA0A0020D40B002070B572B6072805D8C0
:1024B000DFE800F00439434B545B21292F4B304DAA
:1024C0001A6A3049304822F010021A621A6A22F45D
:1024D00080721A624FF400064FF480344FF40033D8
:1024E0000022AE618C6102608B6101F021F8274B04
:1024F000186062B670BD2349214B4FF480308022B2
:1025000088619A61F1E71D4B1D4D1A6A1D491E48ED
:1025100022F010021A621A6A22F480721A6280266D
:1025200001240223DCE7154B1A6A22F480721A6236
:102530001A6A42F010021A62D7E71149114B4FF4A0
:102540000000022288619A61CFE70C4A0E49136AA3
:10255000012023F0100313620860C6E7094B4FF413
:102560000031012299619A61BFE7044A0649136A62
:10257000002043F4807313620860B6E7000800404F
:10258000000002400004024064844042FC0A002033
:10259000084B1B78042B00D07047074A137801338F
:1025A000DBB213701378062B84BF012313701078ED
:1025B000FFF77ABF3E0A0020FA0900202DE9F84F04
:1025C00072B600F0B5FFA84C206062B6A74B1A683F
:1025D00042B123689A4288BF03F1FF339B1A1E2B36
:1025E00040F2CE80DFF8D082A14AA24BB8F900E0D9
:1025F000DFF8C8B2B3F900C013882BF81E309E4E26
:1026000051889E4F928826F81E109D4E26F81E2057
:102610003E680EF10100334490FBFCF5964E0CFB36
:102620001500984D36F810E0954E3BF810A036F89E
:102630001090A8F8000094482E6800683144A3EB7D
:102640000A03A1EB0E0102448F483B60A2EB090292
:1026500003EB010E026002EB0E00B0FBFCFCBCF1D0
:102660005A0F296040F28C80884ED4F80090306870
:102670008145C0F087803068A9EB000CDFF840A2EC
:10268000DAF8000084457BD9814E307805468818F9
:102690004008002D7DD183427DD301233370BCF5EA
:1026A000967F40F3D1807B4A7B4B106819681A688B
:1026B000DFF810928445A8BF8446C1EBCC3C02EB06
:1026C000EC021A601B68754A75491268DB13C9F879
:1026D0000030D9F80000C2EB5000012200F0CEFF1C
:1026E000704971480A68634B01320A600022026037
:1026F000B3F90030D9F80020581C42F38F128242FF
:1027000054DD3F2B52DCB8F900E039683BF81EC0BD
:10271000594D5B4E35F81E8036F81E208C445949C1
:10272000C7F800C00968584F884439680A445549B9
:102730003A607345C1F8008013DD5B00E918F218B8
:102740000BEB4E0E5B4433F8025C23F8025931F870
:10275000026C32F8025C21F802699E4522F80259A7
:10276000F1D1444B1880494A23681360D9F80030EE
:1027700003EB43039B08CAF800303C4B00221A606D
:10278000BDE8F88F4148006809F1FF3CACEB000C54
:1027900074E783425CD94548057813445B08002DF3
:1027A00046D0994246D80023037078E703F1FF3CF6
:1027B0006245D8DA012AD6DDB8F900E0F44576465C
:1027C00015DD3B4A2C482E4D4FEA4E0102EB4303E8
:1027D00008440BEB01022944558822F8025B458826
:1027E00020F8025B9A424D8821F8025BF4D10FFA7F
:1027F0008CFC204BE645A3F800C003D10023A8F8C9
:1028000000301E461C491E4A31F816C032F816E048
:102810003BF816001C4D1B4E396832682B68091AAC
:10282000A2EB0C02A3EB0E03396032602B609AE737
:10283000994216D21F490B784FEA5E0E63B9724572
:102840009ED301230B702AE7104BC3F8009097E743
:102850000F4A0023137022E7724591D800230B70B2
:102860001DE7012303701AE70C0B0020FC0A00206F
:10287000380A0020DA0B0020740C0020F40A002033
:10288000500B0020300B0020F40C0020C80A002060
:10289000E80A0020C00A00206C0C0020F409002087
:1028A000912500083C0B0020EC0A0020680C002059
:1028B000E20B0020D00B0020F8090020E40B0020E0
:1028C000DC0B00204C0B002008B5084B1A68910661
:1028D00006D4064B1A68120744BF08229A6008BD46
:1028E00020229A60FFF76AFEF3E700BF006402400F
:1028F000064B1A69D20707D5054A6FF00101196125
:10290000536983F400535361704700BF00000140D6
:10291000000C02407C4B1A6970B5940718D56FF013
:1029200002017A4A19611068596B794A814212682A
:1029300000F081805C6B81188C420A4400F0C580F5
:10294000596B914200F0AC8000F0F2FD714B1860C1
:102950006D4A1369580732D56FF004016C4B116151
:102960001B686D486949D0ED006A0968946B07EEF1
:10297000903A5B00B8EE677A07EE903A67EE266A07
:10298000F8EE677ABCEEE66A77EEA67A16EE100AE3
:10299000FCEEE77A401A17EE903A5B1A9C4259D047
:1029A00037EE267A946BBCEEC77A844217EE105A43
:1029B000A5EB010100F0A180906B88427AD0524BC8
:1029C0001A6911071AD56FF0080251491A614F4A66
:1029D0000C681068DE6B620815182118AE421144AD
:1029E0003FD0DE6B02EB44028E42024479D0D96BB9
:1029F00091424DD000F09CFD464B1860424B1A6945
:102A0000D20617D56FF0100241491A613F4A096892
:102A100014681D6C4A08101B854201EB00062BD080
:102A20001D6C02EB4102B542A2EB040247D0196CC7
:102A3000914227D070BD0A4438495A630B6A384A1C
:102A400043F010030B620120107000F071FD314B58
:102A500018607DE7314990630B6A23F480730B6241
:102A6000ADE73048D9632E4A02238361137000F02A
:102A70005FFD284B1860C1E72B4A1E644FF400032A
:102A8000936170BD274A18644FF48033936170BD21
:102A90002549234ADD638020062388611370A9E756
:102AA0001E4A5863136A1E4943F48073052013625B
:102AB000087049E71D49936300230B607FE71949BC
:102AC0001A644FF400338B6170BD18485A6314497F
:102AD0000122032302600B7000F02AFD0D4B1860E9
:102AE00036E71048DA630E490122042382610B7035
:102AF00000F01EFD074B186080E708489163036AE9
:102B000023F0100303625AE700000140000B00208D
:102B1000380B0020FC0A0020400B00200008004079
:102B2000FA09002000040240000002406484404290
:102B300008B50020FFF7B8FC4FF4FA7000F016FD5E
:102B40000620FFF7B1FC4FF4FA7000F00FFD0120F2
:102B5000FFF7AAFC4FF4FA70BDE8084000F006BD8C
:102B60002DE9F04FBC48BD49456CBD4ADFF85CC358
:102B7000BC4EDFF85CA3DFF85CB3DFF85C83DFF802
:102B80005C93B94F2DED028B89B045F480450391DC
:102B9000029201934564456CDFEDB48A9FEDB48ADF
:102BA00005F480450695069D056C45F08055056445
:102BB000006C00F0805007900798DCF80C504FF63E
:102BC000FF0028400643CCF80C600025DCF80C0020
:102BD0008CF81850DCF80C008CF81950DCF80C005C
:102BE0008CF81A50DCF80C008CF81F50DCF80C0044
:102BF0008CF82050DCF80C008CF82250DCF80C002B
:102C00008CF82350FFF750FB9A4B9B4E9B48186063
:102C1000DFF8CCC29A4B42F2107030604FF0960E43
:102C20009848CCF800E0984E1D6044F6206CC0F83F
:102C300000C09648C6F800C04FF00C0E944EA0F8A5
:102C400000E0DFF8A0C2DFF8A0E2924BC6F800C0B7
:102C50000A20914EDFF894C2CEF800004020C3ED68
:102C6000008ACBF800C03080CAF80050FFF780FA25
:102C7000FFF75EFAFEF734FE00F052FD00F08AFA2C
:102C800000F0AEFB284605F18045844E05F59035F1
:102C9000FFF70AFC00F07EFC00F0AAF9FFF734FA17
:102CA00001203070FFF744FFD5F808C07C4B039932
:102CB000022030704CF0804C7A48C5F808C0D0F83B
:102CC00000C0794E794D4CF0010CC0F800C0D6F828
:102CD00000C02868DCF80060754D46F08076CCF8BE
:102CE0000060D0F800C04CF0010CC0F800C04FF6F6
:102CF000FF701860DDE90132D8F800300198013327
:102D0000C8F80030D9F80030834203D0D9F8003039
:102D1000DB075CD5574B9BED006AD3ED006AD1ED24
:102D2000005A97ED005A6348F8EEE66A26EE086A04
:102D3000F7EE007A86EE267A037877EEE57A67EE8C
:102D4000277AE5EE857AC7ED007A33B10023037068
:102D50005948436983F480534361584B1E461B789E
:102D60001BB34748006800235028337039D8DAF87D
:102D70000030502B0BD972B64A48036823F0010388
:102D80000360464B4FF0040C83F800C062B64C4B16
:102D9000DAF800001B68984203D139480368013310
:102DA00003604748DAF8003003601368454E18683E
:102DB000041B2C602C68336823443360384E2C6825
:102DC00033689C4201D22B683360044694E7CDE916
:102DD0000212FFF7B1F8D9F800300193DDE90212D1
:102DE00098E7CDE9041272B618460293FFF75CFB30
:102DF000029B284ECAF800300393284BC6ED008A88
:102E000008201870FFF794FE2F49D6ED007A096864
:102E1000DFF8DCE0DFF88CC0039B029107EE101AAC
:102E2000B8EE477A67EE277AFCEEE77ACEED0D7AB8
:102E3000CEED0E7ACEED0F7ACCF82430DCF80030EF
:102E400043F00103CCF8003062B6144A0223137039
:102E5000DDE904128BE700BF003802402C0B002094
:102E60001C0000200003FA05440B0020CDCCCC3D13
:102E7000000000476C0C00204C0B00200000881361
:102E8000EC0A0020C00A0020DC0B0020F00A002021
:102E9000180B0020640C0020DA0B00203E0A0020F2
:102EA000E40A00200000014020000020180000205B
:102EB000480B0020EA0A0020000C0240690C0020A8
:102EC000D00A00201C0B0020200B002000ED00E0A9
:102ED0003C0B0020700C0020D40B0020540A002072
:102EE000FC0C002000004842000B0020DB622E4A50
:102EF00000080040124A70B402F58055C0B22B6839
:102F0000104CD05421680133C3F30B0311F00101BD
:102F10002B600FD141F20405505986188342E660B8
:102F20000AD8C0F5805051516060064A136843F0DA
:102F30000103136070BC7047181A60605351F4E7C6
:102F4000000D0020B86402400449054B41F2101204
:102F50005B688858C01A18BF01207047000D002018
:102F60004064024010B4094A41F2101441F20800D2
:102F70001359C3F580711144013B085C08BF4FF43D
:102F80008073C0B213515DF8044B7047000D0020F0
:102F900010B50446007828B1FFF7ACFF14F8010F14
:102FA0000028F9D110BD00BF0FB470B5ADF5805D3C
:102FB00082B00DF58053183302AD53F8042B45F859
:102FC000043C28464FF4805103F07CFD002486B277
:102FD000A3B20134E85CFFF78DFFA3B2B342F7D987
:102FE0000DF5805D02B0BDE8704004B0704700BFD1
:102FF00030B4144B144C1549154841F20C150022FD
:103000005A5141F208155A516260A060114C886013
:10301000CC60046944F0400404610C6844F001048D
:103020000C6041F204044D6801691A5141F2101418
:1030300041F080011D5103F58053016130BC1A60DD
:10304000704700BF000D0020B86402404064024099
:1030500004100140081D00201B4B5A68110121D5A6
:103060001A491B4A4FF0006030B4D86041F20404A2
:1030700001F5805310681D680B5920F001009D4236
:1030800010600DD003EB0100D06018D80020C3F50C
:103090008053085153600E4A136843F001031360D4
:1030A00030BC70475A68920108D5094A4FF0007148
:1030B000D960136823F00103136070477047EB1A5F
:1030C00053600D51E7E700BF00640240000D00208F
:1030D000B8640240174B1A68910219D51649174A6D
:1030E0004FF4001010B4986041F2040401F58050D0
:1030F00013680068095923F001038842136004D063
:103100000F4A536983F4005353615DF8044B7047D1
:103110001A6812030DD54FF4002208499A600B6813
:10312000074A23F001030B60536983F48043536122
:103130007047704700640240000D00204064024068
:10314000000C02401049114BD1F8882042F4700263
:1031500010B4C1F888201A680D4C002042F001021A
:103160001A6098601A6822F0847222F480321A6021
:103170005C601A684FF0006422F480221A60D86004
:103180008C605DF8044B704700ED00E000380240B1
:1031900010300024814B9FED826AD3ED007A9FEDC1
:1031A000817A814B814A8248F1EE0C6A67EEA67AF9
:1031B000F1EE086A67EEA67A2DE9F047C7EE866A57
:1031C0007C4C7D4D10600C2294B02A60C7EE267AAC
:1031D000C3ED006AFCEEE77A17EE903AB3F5803F54
:1031E000C4ED007A16D30D2200E00A46B0FBF2F3DC
:1031F00007EE103AB8EEC77A511CC7EE267AFCEEFD
:10320000E77A17EE903AB3F5803FEED22A60C4ED2C
:10321000007A92B207EE903AF8EEE76AB0EE087ADA
:10322000C6EE877A654FDFF8A891DFF8A8A1644958
:10323000644CDFF8A4C1644EDFF8A08164203860DC
:103240004FF07E50CAF800000025FCEEE77AC9ED89
:10325000007A486C40F001004864496C01F00101BB
:1032600000914FF000610098DCF80C0086F81B53C9
:103270002046316001A9ADF804200393029504951E
:103280008DF81450FEF722F9A368504E23F48043C2
:1032900023F00703A360CDE90C55CDE91055CDE926
:1032A00012553B680E950F93A36923F00803A361A1
:1032B0000CAA20460121FEF771F9D9ED007ADAED6A
:1032C000006AA3690D95B8EE677AD7ED007A0E957E
:1032D000F8EE677A03EA0803D7EE267A0CAA2046AE
:1032E0001021FCEEE77ACDED0F7AA361FEF756F9D7
:1032F000A369726823F48063A361D9F800103B6866
:103300000D9522F0080203EB5103726020460CAACF
:103310004FF48071CDE90E53FEF740F97268D9F889
:1033200000003B680D9502EA0801C3EB50030CAAAC
:10333000716020464FF48051CDE90E53FEF72EF90F
:103340006268736822F070026260A26823F480638E
:1033500022F08002A2602046736006A94FF4005359
:10336000CDE90A35CDE9065508958DF82450ADF81C
:103370002650FEF7FDF9E36843F00203E360E368DB
:1033800043F00403E360E36843F00803E360E368A9
:1033900043F01003E36014B0BDE8F087180B002081
:1033A000000070428096184B181E00201C1E002042
:1033B000000E2707241E0020201E0020000B0020E6
:1033C000003802400000014000E100E01800014028
:1033D000380B0020400B002000ED00E0FBF7FFFF62
:1033E0004A4B4B491A6CDFF844C14A482DE9F04179
:1033F00042F004021A641B6C474C484F086094B0BA
:1034000003F0040300250093072240F24D1301A9A5
:103410002046CCF80020DDF800E0ADF804203B6049
:10342000CDE902530495FEF751F8A368A2693C491F
:103430003C4E91ED007A23F4804323F0070342F0E1
:103440000802A360A261D7ED007A0E95F8EE677AC4
:10345000012767EE877A3946FCEEE77A0CAA4FF02F
:1034600060082046CDED0F7A1095CDE90C87FEF768
:1034700095F8A369CDF8308023F0040343F400638A
:10348000A3610CAA20461021CDE90D75FEF786F840
:10349000A269736822F4806243F00803A2612046A7
:1034A00073600CAA4FF48071CDE90D75FEF776F8C4
:1034B00073680C9523F004030CAA736020464FF444
:1034C0008051CDE90D55FEF769F8626873681648BA
:1034D00022F070026260A26823F4806322F080020E
:1034E000A26006A97360032202234FF4E076CDE9BF
:1034F0000663CDE90A3309950892FDF7DBFE2368E0
:103500003B43236014B0BDE8F08100BF00380240A7
:10351000141E0020000E270700080040200B00208A
:10352000640C00201808004000040240281E0020FF
:103530004FF080430A485B6A0A4930B405880A881C
:103540009CB2A54202D9013292B20A800649048097
:103550009BB243EA02430B60086830BC704700BF6F
:10356000FE090020FC0900202C1E00204FF08042A4
:103570004000536AC01805D24FF08042536A83421C
:10358000FCD37047536A8342F6D9536A8342F9D811
:10359000F2E700BF364B37491A6CF0B542F0010232
:1035A0001A641B6C344E8FB003F001034FF080445B
:1035B000009310274FF08053009A81F81C73002568
:1035C0000B603B224FF0FF3301A92046ADF80420E9
:1035D000CDE903350295FDF779FFA36823F4804315
:1035E00023F00703A360236A23F001032362E36847
:1035F00023F00203E360236A23F010032362E368ED
:1036000023F00403E360236A23F480732362E368F6
:103610000121202223F00803E360CDE90621CDE952
:1036200008550A95A36923F00C03A36106AA204656
:10363000FDF7B4FFA36923F440633946A36106AAEA
:103640002046FDF7ABFF736823F00C03736006AAF6
:1036500020464FF48071FDF7A1FF236843F08003FB
:103660002360236843F0010323600FB0F0BD00BF67
:103670000038024000E100E018000040022810B4C9
:1036800009DC4FF080441046E36843F00203E36036
:103690005DF8044B08474FF08043084C2160596A9D
:1036A000626008446FF0020258631A61DA685DF8DC
:1036B000044B42F00202DA60704700BF301E002067
:1036C0004FF080431A6990070AD56FF002021A6121
:1036D000DA68124942F00202DA60D1E90030184794
:1036E0001A6951070AD56FF004021A61DA680B49AA
:1036F00042F00402DA60D1E9023018471A69120771
:103700000AD56FF008021A61DA68044942F008022B
:10371000DA60D1E904301847704700BF301E00203E
:103720004F4B50485A6C70B542F010025A645B6CB3
:103730004D4C4E4D8EB003F0100300934FF4C0611A
:1037400002220323009E019100260292039301228C
:10375000072301A9CDE904620693FDF7ABFD444BB5
:1037600044491A6822F0606242F000621A601A68E6
:1037700022F0C0021A601A6822F440321A601A68F5
:1037800022F4907242F480721A601A6822F4007275
:103790001A601A6842F480621A601A6822F4C052F1
:1037A0001A601A6822F4C0421A605A680A4042F449
:1037B00080725A605A6922F004025A61226822F02B
:1037C000606242F000622260226822F0C00242F091
:1037D00040022260236823F440332360236823F4EB
:1037E00090732360236823F400732360236843F4F9
:1037F00080632360236823F4C0532360236823F489
:10380000C043236063680B4043F480536360636983
:1038100023F0040363614FF461320C23284607A9A7
:103820000B93CDE908660A96CDE90C660792FDF781
:10383000BBFF2B6923F490432B616B6923F02A03B0
:103840006B61EB6843F40053EB60236843F01003B3
:103850002360236843F0040323600EB070BD00BFF3
:103860000038024000000240B864024000100140ED
:10387000406402400000FFFFDFF834D0002103E085
:103880000C4B5B58435004310B480C4B42189A4286
:10389000F6D30B4A02E0002342F8043B094B9A425C
:1038A000F9D3FFF74FFC00F033F8FFF759F97047F1
:1038B00000000220E8BA000800000020D80900201B
:1038C000D8090020701E0020FEE700002DE9F84F07
:1038D000DDF828A0B2B11F46A3B18046894616463E
:1038E000002503E010D0651CAE420BD974196408A2
:1038F00004FB079B59464046D0470028F2DA26468B
:10390000AE42F3D84FF0000B5846BDE8F88F00BF29
:1039100070B50D4E0D4D761BB61006D00024013447
:1039200055F8043B9847A642F9D1094E094D761B3C
:1039300007F066FDB61006D00024013455F8043BAC
:103940009847A642F9D170BDDCBA0008DCBA00087D
:10395000E4BA0008DCBA0008F0B4860743D0541E6D
:10396000002A3ED0CAB2034602E014F1FF3438D335
:1039700003F8012B9D07F8D1032C2BD9CDB245EAD2
:1039800005250F2C45EA054516D9A4F110073F0976
:1039900003F1200606EB071603F1100242E9045575
:1039A00042E902551032B242F8D104F00F04013757
:1039B000032C03EB07130DD91E462246043A032AB3
:1039C00046F8045BFAD8221F22F0030204321344A3
:1039D00004F003042CB1C9B21C4403F8011B9C423F
:1039E000FBD1F0BC704714460346C5E70EB430B5B2
:1039F0009CB01FAB0C4C0D4D53F8042B01930146AA
:103A000002910691206802A96FF000440794CDE965
:103A1000044500F069F8029B00221A701CB0BDE852
:103A2000304003B0704700BF280000200802FFFFAD
:103A30000EB470B59DB021AC4FF4017254F8045B24
:103A4000ADF8142002900690FCF73AFE0C4B01945E
:103A500001462A46039107910A4E18680A962346A2
:103A60004FF6FF75002402A90E941394ADF816507A
:103A700001F020FD1DB0BDE8704003B0704700BFED
:103A800028000020893A0008002070474AB32DE939
:103A9000F04107460E4601EB020804E0601B1BD113
:103AA000E5B1B0451AD017F8014B04F04BF92044AA
:103AB00016F8015B437803F00303012B08BF2034A1
:103AC00004F040F92844437803F00303012BE5D1C7
:103AD00005F12000201AE4D0BDE8F0810020BDE807
:103AE000F0810020704700BF2DE9F04FD7B00C46A1
:103AF000069193460993039004F034F903681793F1
:103B00001846FCF7DDFDA38916901F0603D523692F
:103B1000002B00F0558700235E469FED8F7B1093AE
:103B2000CDE92B331593CDE919331B9318930593E6
:103B30002DAB2A93994633788DED127B002B00F044
:103B4000CE82252B344602D11CE0252B03D014F85D
:103B5000013F002BF9D1A51B85B1DDE92B320133E3
:103B60002A44072BC9F80060C9F80450CDE92B326C
:103B70007CDC09F10809059B2B4405932378002B75
:103B800000F0AD8200236778079398468DF88B305C
:103B900004F1010B4FF0FF3A2B250BF1010BA7F1BC
:103BA00020035A2B00F2E483DFE813F0A503E203BD
:103BB000E203A003E203E203E2038103E203E20380
:103BC000B503B003E20372015801E2033B03C600F0
:103BD000C600C600C600C600C600C600C600C600B5
:103BE000E203E203E203E203E203E203E20340034F
:103BF000E2037701F002400340034003E203E203E3
:103C0000E203E203EB02E203E2038400E203E203E5
:103C1000E203C202E203CE03E203E203AC02E203E8
:103C2000E203E203E203E203E203E203E20340030E
:103C3000E2037701DA00400340034003C103DA00E6
:103C40005B00E2031E03E203060386002B035B0016
:103C5000E203C2025D002901E203E2033801E2034C
:103C60005D0048F020089BF8007096E72AAA0699A4
:103C7000039806F047FD80B90DF1B4097BE72AAA45
:103C80005946504606F03EFD002801F0C5800A9BCB
:103C90001BB10A99039803F041FF069B9B8913F01F
:103CA000400F059B18BF4FF0FF330593059857B0A1
:103CB000BDE8F08F48F0100818F0200F00F0738571
:103CC000099C073424F00703D3E9004503F10802F7
:103CD000099228F48063002200218DF88B10BAF13C
:103CE000FF3F56A9049100F0A78454EA050123F090
:103CF00080085BD1BAF1000F40F09687002A40F0AF
:103D00001F8513F0010356AE089302D0302306F846
:103D1000013D00230A930F9314931193089B9DF880
:103D20008B205345B8BF53460493002A00F0C88047
:103D3000049B01330493C3E0A7F1300300221BF876
:103D4000017B02EB820203EB4202A7F13003092B55
:103D5000F5D9079223E700BF000000000000000033
:103D600043469E0640F11782099C073424F007045D
:103D7000D4E9000104F10802099204460D46002826
:103D800071F1000205DA2D22644265EB45058DF8DC
:103D90008B2056AABAF1FF3F049200F0E38654EA62
:103DA00005014FF0010223F08008A3D0012A00F0A2
:103DB0004784022A00F0EF8256A900E03146E2086B
:103DC00042EA4572E80804F007030546144630331A
:103DD00054EA050201F8013C01F1FF36EED118F07A
:103DE000010F00F0E882302B00F0E582049A0239DE
:103DF0003023521A06F8013C08920E4689E74346E2
:103E00009E0640F1A682099C073424F0070202F1C5
:103E10000801D2E90045099101225DE7B64B1593EF
:103E200018F0200F00F07481099C073424F0070378
:103E3000D3E9004503F10802099218F0010F09D0F7
:103E400054EA050306D030238DF88D7048F002083F
:103E50008DF88C3028F4806302223DE79BF80070D7
:103E60002A2F0BF1010201F0EB82A7F13003092B9D
:103E700093464FF0000A3FF692AE1BF8017B0AEB27
:103E80008A0A03EB4A0AA7F13003092BF5D986E623
:103E90009BF8007048F004087FE609980023016849
:103EA0008DF88B301A468DF8F4100123011DCDE9F1
:103EB000083104930A9292460F92149211923DAEE9
:103EC00018F002030B9302D0049B0233049318F002
:103ED00084032C9C0E933FD1079B04995D1A002DFF
:103EE0003ADD102D2B9A29DD49462046B146102394
:103EF0002097039C069E04E0103D102D01F108015F
:103F000018DD01327D4F1030072ACDE92B20C1E9A1
:103F10000073F1DD2AAA314620460C9306F0F2FB2D
:103F200000287FF4B4AE103D102DDDE92B202DA923
:103F30000C9BE6DC209F4E460446894601326F4BBF
:103F40002C44072ACDE92B24C9E9003500F37C85F0
:103F50009DF88B2009F1080972B12B9A01320134C6
:103F60000DF18B000121072ACDE92B24C9E90001BD
:103F700000F3738309F108090B9B6BB12B9B013391
:103F8000023423A90222072BCDE92B34C9E9001200
:103F900000F36F8309F108090E9B802B00F07982F2
:103FA000089BAAEB0305002D35DD102D2B9A544BF1
:103FB00026DD49462046B1464FF0100A069E1C46B3
:103FC00004E0103D102D01F1080115DD0132103023
:103FD000072ACDE92B20C1E9004AF2DD2AAA3146A1
:103FE000039806F08FFB00287FF451AE103D102D92
:103FF000DDE92B202DA9E9DC4E46234689460446FF
:1040000001322C44072ACDE92B24C9E9003500F3FD
:104010003C8309F1080918F4807F40F0DB812B9B79
:10402000089AC9F8006001331444072B2C94C9F88E
:1040300004202B9300F3A18209F1080918F0040F62
:1040400033D0079B049A9D1A002D2EDD102D2B9B3B
:1040500021DD1026039FDDF8188004E0103D102DAF
:1040600009F1080917DD0133244A1034072BCDE983
:104070002B34C9E90026F1DD2AAA4146384606F06C
:1040800041FB00287FF403AE103D102DDDE92B34F9
:104090000DF1B409E7DC0133184A2C44072BCDE9B4
:1040A0002B34C9E9002500F3A583059B079A0499E1
:1040B0008A42ACBF9B185B180593002C40F0258208
:1040C00000232B930A9B1BB10A99039803F026FD4A
:1040D0000DF1B4095E463378002B7FF432AD2C9B92
:1040E000002B3FF4DAAD069C03982AAA214606F07D
:1040F00009FBA389D3E500BFCCB6000800B70008D0
:1041000010B70008AE4B159318F0200F7FF48CAE5B
:10411000099A18F0100F02F1040340F0798318F0A7
:10412000400F099A00F0708314880993002584E6F3
:10413000099B1E6800258DF88B501C1D002E00F079
:104140007384BAF1FF3F00F05F865246294630463D
:10415000FCF726FB0A90002800F09A870A9B9B1B1D
:104160000893AA4623EAE37309940493CDF828A0A0
:10417000CDF83CA0CDF850A0CDF844A09DF88B2000
:10418000D3E548F008089BF8007006E548F01003F6
:104190009E063FF5E9AD0999DD0601F1040200F143
:1041A00051835C06099940F14A83B1F900400992B4
:1041B000E51720462946E2E5099A18F0200F52F843
:1041C000043B099240F0458318F0100F40F07C85C5
:1041D00018F0400F40F02E8618F4007F00F0748530
:1041E000059A1A705E4676E79BF800706C2F03BF45
:1041F0009BF8017048F020080BF1010B48F0100803
:10420000CBE409996F4B0C68159347F630020431E3
:10421000ADF88C2048F0020309910025022278278E
:104220005AE548F080089BF80070B6E4099C073412
:1042300024F0070494ED007B52EC171B22F000439E
:104240001D938DED1C7A0834DDE91C014FF0FF321F
:104250005D4B09948DED127BFCF78CFD002840F03E
:10426000FF824FF0FF32584BDDE91C01FCF764FD83
:10427000002840F0F58200220023DDE91201FCF75E
:1042800051FD002840F0E3869DF88B204F4E504BA7
:104290000020032104910A9028F08008472FD8BFFE
:1042A0001E46089182460F90149011903DE5039FA1
:1042B000384603F057FD436818931846FCF700FA98
:1042C0001B900446384603F04DFD83681A93002C7A
:1042D0003FF4C9AC9BF80070002B3FF45EAC1B7838
:1042E000002B3FF45AAC48F4806856E448F00108CB
:1042F0009BF8007051E49DF88B309BF80070002B08
:104300007FF44BAC20238DF88B3046E48DF88B5036
:104310009BF8007041E4099B9BF800701A680792B3
:10432000002A03F10403C0F25A83099335E49BF891
:104330000070682F03BF9BF8017048F400780BF100
:10434000010B48F0400828E448F010039E063FF5B2
:104350005AAD099ADD0602F1040100F161825C06A2
:10436000099A40F15A821488099100250122B3E488
:10437000002F3FF4B4AE002301211A4604918DF8BA
:10438000F4708DF88B300A939A460F93149311931F
:1043900008913DAE94E5159856AE230904F00F013F
:1043A00043EA05732A091C461546435C06F8013D9D
:1043B00054EA0503F1D1049B9B1B0893A9E400BFB9
:1043C000E0B60008CCB60008FFFFEF7FC0B60008DB
:1043D000BCB60008652F40F3DC8000220023DDE935
:1043E0001201FCF795FC002800F060812B9BAD4A80
:1043F000C9F80020013301340122072BCDE92B3409
:10440000C9F8042000F33C8409F10809249B109AA0
:104410002C9C934280F2E9812B9B179AC9F80020CB
:10442000169AC9F8042001331444072BCDE92B3424
:1044300000F3EE8209F10809109B5D1E002D7FF745
:10444000FDAD102D2B9A984B40F30384194610268E
:104450002346039FDDF818A00C4605E009F1080982
:10446000103D102D40F3F28301321033072ACDE9BD
:104470002B23C9E90046F1DD2AAA5146384606F049
:1044800041F900287FF403ACDDE92B230DF1B409D9
:10449000E6E7079B049A9D1A002D7FF781AD102D4A
:1044A0002B9A814B25DD49462046B1461C46069E87
:1044B00004E0103D102D01F1080116DD013210302D
:1044C0001023072ACDE92B200C604B60F1DD2AAACE
:1044D0003146039806F016F900287FF4D8AB103D5A
:1044E000102DDDE92B202DA9E8DC4E462346894618
:1044F000044601322C44072ACDE92B24C9E90035B2
:1045000000F3B18309F108094AE52AAA069903983C
:1045100006F0F8F800283FF4D3ADFFF7B8BB2AAA9D
:104520000699039806F0EEF800287FF4B0AB249BC0
:104530002C9C0DF1B4091BB9109A002A00F092844A
:104540002B9A1799C9F800101699C9F8041001326E
:104550000C44072A2C942B9200F3A78509F1080933
:10456000002BC0F22086109B01321C44072ACDE9A3
:104570002B24C9E900637FF75FAD2AAA0699039847
:1045800006F0C0F800287FF482AB2C9C0DF1B40932
:1045900054E5109A2B9B012A04F1010403F1010553
:1045A00009F1080740F30E810123072DC9F80060C7
:1045B000CDE92B54C9F8043000F31D83169B179ADC
:1045C000691C1C4407290B91CDE92B14C7E9002372
:1045D00000F31D8308370B9A531C1D460895109D48
:1045E0000E9300220023DDE9120105F1FF3A07F1E5
:1045F0000809FCF78DFB002840F0A780089DC7F84C
:1046000004A001365444072D3E602C942B9500F3F2
:10461000EF810B9A07F1100302324F460892994638
:10462000199A7A601444089A2C9426AB072A2B9284
:104630003B607FF703ADA0E7012A98467FF4B9AB52
:10464000002D08BF0A2C80F0938256AE303401232F
:1046500006F8014D0893FFF75CBB2AAA0699039858
:1046600006F050F800287FF412AB2C9C0DF1B40931
:1046700082E42AAA0699039806F044F800287FF4F9
:1046800006AB2C9C0DF1B40986E42AAA069903987E
:1046900006F038F800287FF4FAAA2C9C0DF1B40932
:1046A000B9E400BFFCB6000810B70008249B002B3B
:1046B00040F37581DDE910239342A8BF1346002B18
:1046C0001D460DDD2B9BC9F8006001332C44072BE0
:1046D0002C94C9F804502B9300F3BE8409F1080907
:1046E000119B002DA8BF5B1B002B1D4640F3D481FE
:1046F000102D2B9ABC4B40F3BB81184621464B46EC
:104700001027B146DDF80CA0069C064604E00833ED
:10471000103D102D40F3A78101321031072ACDE959
:104720002B21C3E90067F2DD2AAA2146504605F095
:10473000E9FF00287FF4ABAADDE92B212DABE7E7E9
:10474000CDF820A056AEFFF7E4BABAF1000F7FF71C
:1047500067AFBAF1100FA44B40F34E8619462246BC
:104760003B461026DDF80C90069C0E9D0F4607E098
:104770000833AAF1100ABAF1100F40F38D82013507
:104780001032072DCDE92B52C3E90076F0DD2AAABD
:104790002146484605F0B6FF00287FF478AADDE9F7
:1047A0002B522DABE5E7099A18F0100F02F1040324
:1047B00040D118F0400F099A38D014880993002589
:1047C000FFF787BA18F0010F7FF4EEAE0122072D34
:1047D000C9F80060CDE92B54C9F8042000F3088122
:1047E0000233089309F110091AE718F0010F7FF45A
:1047F00013AE23E42AAA0699039805F083FF002844
:104800007FF445AA2C9C50E418F4007F40F00D83FF
:10481000146809930025FFF710BB980500F10F837A
:104820001468099101220025FFF756BA18F4007F99
:1048300040F01383146809930025FFF74ABA9805DE
:1048400000F103830C680992E51720462946FFF71B
:1048500096BA059A1046D117C3E900015E463AE4BC
:10486000DDE9120102460B46FCF784FA002840F00D
:104870009985612F00F00784412F00F0F98248F4F8
:10488000807327F02002BAF1FF3F0E930492139B2E
:1048900000F01F85472A00F01685002BC0F2E9833F
:1048A0009DED127BCDE90A008DED1E7B662F00F099
:1048B000DD84462F00F06285049B0398452B0CBFD6
:1048C0000AF10105554628AA25ABCDE9003202219F
:1048D00024AB2A469DED1E0B02F0A6F9672F064673
:1048E00040F0958518F0010F40F0F784289B404672
:1048F0009B1BDDF838801093249B1193049B472B5E
:1049000000F07183049B462B00F007840499119BEF
:10491000FAB2412908BF0F3203F1FF3306BFD2B20A
:1049200001210021002B2493B8BF119B8DF8982002
:10493000BABFC3F101032D222B22092B8DF8992038
:1049400000F3E584002940F06A8530228DF89A2032
:104950000DF19B0230331370531C26AA9B1A109A38
:104960001993012A1344089340F32885089B169A4B
:104970001344089300230F9314931193089B20F47E
:10498000806023EAE37340F4807804930B9B002B50
:1049900040F03C839A469DF88B20FFF7C6B92B9ACE
:1049A0001249C9F80010013201340121072ACDE96A
:1049B0002B24C9F804103FF7B2AD09F10809BAE594
:1049C0004021039803F0F0F9069B18601861002855
:1049D00000F05385069A40235361FFF79CB852427A
:1049E00007920993FFF756BA10B70008FCB6000803
:1049F0002AAA0699039805F085FE00287FF447A9A6
:104A0000DDE92B34013308930DF1BC092DAF07E626
:104A10002AAA0699039805F075FE00287FF437A9A5
:104A20002C9C0DF1B40907E55346062B28BF06233D
:104A3000B2460F96149611960A9632460493CDE923
:104A40000834A44EFFF771B92AAA0699039805F015
:104A500059FE00287FF41BA99DF88B202C9C0DF19A
:104A6000B409FFF779BA0C4631464E4699460B46D3
:104A700001322C44072ACDE92B24C9E9003540F343
:104A8000D1812AAA0699039805F03CFE00287FF4FC
:104A9000FEA82C9C0DF1B409119B18F4806F3344CF
:104AA0009A4640F01B81249B109A934249DB18F0F0
:104AB000010F46D1109AB518A5EB0A05D31A9D42ED
:104AC000A8BF1D46002D0DDD2B9AC9F800A00132AC
:104AD0002C44072A2C94C9F804502B9200F33C83F1
:104AE00009F10809002DACBF5D1B1D46002D7FF7A5
:104AF000A5AA102D2B9A784B40F3AB8019461026AF
:104B00002346039FDDF818A00C4605E009F10809CB
:104B1000103D102D40F39A8001321033072ACDE961
:104B20002B23C9E90046F1DD2AAA5146384605F093
:104B3000E9FD00287FF4ABA8DDE92B230DF1B409D2
:104B4000E6E72B9A1799C9F800101699C9F80410CE
:104B500001320C44072A2C942B9200F3B58209F100
:104B60000809A7E7002D08BF0A2C9846FFF46DAD91
:104B700008F480630022CDF820900A97CDF82C80AD
:104B800056AE9146DDF868801F460AE000232046B5
:104B900029460A22FCF79CF904460D4654EA05030F
:104BA00046D00A22002320462946FCF791F93032EC
:104BB00006F8012C09F10109013E002FE6D098F812
:104BC00000309945E2D1B9F1FF0FDFD0002D08BFC9
:104BD0000A2CDBD31B9B1899F61A1A46304604F0B0
:104BE0006FFA98F80130002B00F0898308F1010872
:104BF0004FF00009CAE72AAA0699039805F082FD3A
:104C000000287FF444A8DDE92B542DAFD6E42AAA6E
:104C10000699039805F076FD00287FF438A8DDE9B1
:104C20002B342DAF0B93D6E4012A7FF4C2A80CE5F8
:104C3000049BCDF840909B1BDDF82090CDF8688058
:104C40000A9FDDF82C800893FFF763B821461C46C5
:104C50000B4601322C44072ACDE92B24C9E9003543
:104C60007FF7EAA989E42AAA0699039805F04AFD84
:104C700000287FF40CA82C9C0DF1B409FFF790B923
:104C80002AAA0699039805F03DFD00287EF4FFAF9F
:104C90000DF1B409FFF7BABB14463A461F46134656
:104CA0002A460132089207F10802C7E9003A089B38
:104CB0002B935444072B2C943FF79AAE013308935F
:104CC00002F108091746ABE4059A1A605E46FFF741
:104CD00002BA00BFF4B6000810B70008109BCDF868
:104CE0002CB0F3180893149BCDF838804A460C96E4
:104CF000C24FDDF86C90DDF86880DDF818B05646DC
:104D00002146DDF80CA0002B5ED00F9B002B5FD15D
:104D1000149B013B08F1FF3814932B9B18981060EB
:104D200001334944072B2C91C2F804902B9353DC98
:104D30000832089898F80030851B9D42A8BF1D4690
:104D4000002D0BDD2B9B166001332944072B2C9182
:104D500055602B934BDC98F800300832002DACBF27
:104D60005D1B1D46002D2BDD102D2B981CDD102406
:104D700004E0103D102D02F1080215DD0130103164
:104D80000728CDE92B01C2E90074F2DD2AAA5946B1
:104D9000504605F0B7FC00287EF479AF103D102D89
:104DA000DDE92B012DAAE9DC013029440728CDE9F2
:104DB0002B01C2E900753EF762AF98F80030083267
:104DC0001E44149B002BA0D10F9B002B00F0FB80F6
:104DD0000F9B013B0F93A0E72AAA5946504605F0C6
:104DE00091FC00287EF453AF2C992DAAA1E72AAAA2
:104DF0005946504605F086FC00287EF448AF98F8E6
:104E000000302C992DAAA9E73046FBF759FCAA4699
:104E100003460890FFF7A6B998F800302C992DAA00
:104E20001E44CEE709F1080936E6147809930025F7
:104E3000FFF703B8059A1A805E46FFF74CB914785D
:104E4000099100250122FEF747BF91F90040099220
:104E5000E51720462946FEF792BF147809930025EE
:104E6000FEF737BF18F0010F3FF4E8A8FFF768BB63
:104E700030238DF88C305823BAF1630F8DF88D30C4
:104E800048F0020400F3B68148F481730E9327F0D2
:104E9000200304930022139B0A92A0463DAE002BF0
:104EA000C0F2E8809DED127B8DED1E7B00230B93FD
:104EB000612F00F06081412F7FF4F8AC24A89DEDB4
:104EC0001E0B04F079F800224FF07F5351EC100BC9
:104ED000FBF7B6FC00220023CDE90C01FBF718FF1D
:104EE000002840F04382464B08930AF1FF34CDE995
:104EF0000F9B1197CDF850A0B1462196CDF8808038
:104F0000DDF820A0DDE90C6703E0FBF701FF20BB23
:104F1000A94600223B4B30463946FBF791FC0F4631
:104F20000646FBF73DFF8046FBF7BCFA02460B4600
:104F300030463946FBF768F94D461AF808C005F8BF
:104F400001CBB4F1FF3FA34606460F464FF00002E7
:104F50004FF0000304F1FF34D7D130463946002228
:104F6000294B119FDDF850A0CDF844904446DDF860
:104F70003C90DDF88080CDF83CB0219EDDF840B05B
:104F8000CDE90C01FBF7ECFE002840F0AA80DDE93A
:104F90000C0100221C4BFBF7BBFE18B12346DB07BC
:104FA00000F19F800F9B002B07DB0F9B01332B44ED
:104FB000302205F8012BAB42FBD1AB1B40461093CE
:104FC000DDF8388098E4B246109B0C9ECDF86880DE
:104FD000F3189A459146DDF82CB0DDF838800C4680
:104FE00028BF9A465FE5119BDA1C01DB534514DDAF
:104FF000023F27F02003049388E400BF10B70008A5
:10500000E0B60008000030400000E03F2D228DF89F
:105010008B204FF0000AFEF78BBE119B10998B423C
:10502000C0F29080C20740F1A681169A13440893FB
:10503000470503D5119B002B00F3EF80089B23EA63
:10504000E3730493672700230F9314939EE42D22A8
:105050008DF88B20FFF71AB92AAA0699039805F054
:1050600051FB00287EF413AE2C9C0DF1B409FFF720
:1050700037BB0A90DDE9121202F100431F932D2382
:105080001E910B9314E730238DF88C307823F3E6D0
:10509000CDF810A0CDF820A0099482460F9014906E
:1050A00011909DF88B20FEF740BE2AAA069903981E
:1050B00005F028FB00287EF4EAAD249BDDE92B24D3
:1050C0000DF1B409FFF74CBA2AAA0699039805F026
:1050D00019FB00287EF4DBAD249B2C9C0DF1B40958
:1050E000E8E4119B2893089B15F8012CD97B914289
:1050F0002B4609D1302003F8010C289B5A1E289218
:1051000013F8012C9142F6D0392A0BBF089A0132CC
:10511000927AD2B203F8012C4FE7119B002B40F397
:105120005281119BBAF1000F40F0EB80C40700F1EF
:10513000E88008936627430570D4089B23EAE3734D
:10514000049380E7109B169A13440893119B002B3D
:1051500040F348816727EEE72AAA0699039805F0ED
:10516000D1FA00287EF493AD249B109A2C9CD31A7C
:105170000DF1B409B6E424A89DED1E0B03F01CFF4D
:1051800000224FF07F5351EC100BFBF759FB00222C
:105190000023CDE90C01FBF7BBFD08B101232493EB
:1051A000BA4B0893A1E65D421033B94B80F29A8066
:1051B000194610272346DDF80CA00C4605E009F13E
:1051C0000809103D102D40F38A8001321033072A60
:1051D000CDE92B23C9E90047F1DD2AAA06995046FB
:1051E00005F090FA00287EF452ADDDE92B230DF195
:1051F000B409E6E70AF10101039802F0D5FD06467D
:10520000002800F04F8148F481730E9327F02003AB
:105210000493A046139B0A9041E667271A98002240
:105220000F9214920378119AFF2B0CD093420ADA52
:105230004178D21AB1B1149B013314930B46FF2B62
:1052400000F10100F2D11192149B0F9A08991A9063
:1052500013441B9A02FB0313089323EAE37304939A
:10526000FFF794BB0F9901310F91DDE728AA25AB19
:10527000CDE90032032124AB52469DED1E0B03986D
:1052800001F0D2FC5546064600EB0A043378302B79
:1052900000F0C980249D2C4400220023DDE91E017A
:1052A000FBF736FD10B12346FFF721BB289BA34235
:1052B000BFF41DAB30215A1C28921970289B9C42C8
:1052C000F9D8FFF714BBBAF1000F00F086800A90FE
:1052D000E5E50A904FF0060AE1E57419DCE721469E
:1052E0001C460B4601322C44072ACDE92B24C9E980
:1052F000003500F3B08009F10809FFF734B9994689
:1053000044E4169A134453440893662713E70DF1B7
:10531000A70C64465F4D00E01446A5FB0312D208BB
:1053200002EB8201A3EB410303F130011346092B89
:1053300004F8011C04F1FF32EEDC3033023CDBB236
:10534000A44502F8013C40F294800DF19A04114604
:1053500001E011F8013B04F8013B8C45F9D12AAB7F
:105360009B1A0DF19A021344FFF7F7BA0123249315
:10537000494B0893B9E5119B089359E628AA25AB38
:10538000CDE90032032124AB52469DED1E0B03985C
:1053900001F04AFC55460646462F06EB05043FF44D
:1053A00075AF79E7139B3D4E002BB6BF2D229DF8BC
:1053B0008B208DF88B203A4BFEF76ABFC5077FF52F
:1053C000D9AAFFF7D3BABAF1000F17D1C10715D484
:1053D000012304930893662735E6CDF828A04FF003
:1053E000010A5CE5089AC3F101031A4422EAE27358
:1053F00008920493672726E64A4656E4169B013333
:105400005344089323EAE373049366271BE6472F6C
:105410007FF463AF18F0010F3FF468AABCE70DF109
:105420009A02FFF797BA00220023DDE91E01FBF77D
:105430006FFC00287FF42EAFC5F1010524952AE703
:1054400009999BF801700B6843EAE37A0B1D9346B8
:105450000993FEF7A2BB2AAA0699039805F052F910
:1054600000287EF414ACDDE92B240DF1B409FFF71C
:105470007AB80DF19A03FFF770BA039A0C23136000
:105480004FF0FF330593FEF711BC00BFCCB6000808
:1054900010B70008CDCCCCCCE0B60008C8B60008E8
:1054A000C4B60008069A938943F040039381FEF73F
:1054B000F6BB00BF2DE9F04F2DED028BADF5317D30
:1054C0008B4602AFB1F90C10F8638804BA633B63F2
:1054D00009D4DBF8643041F4005123F40053ABF8F5
:1054E0000C10CBF864300023C7E90933FB619A46FE
:1054F0007B63D7F8388018F8013B7B64002B00F001
:105500008A8002F01FFC7B6C1844467816F008066F
:1055100040F09380252B40F0B380BB6B5A78354622
:105520003446A2F1250308F10101552B73D8DFE8B9
:1055300013F0A60072007200720072003B04720049
:1055400072007200720072003104310431043104BF
:105550003104310431043104310431047200720029
:10556000720072007200720072002D047200290431
:105570006B042D042D042D04720072007200720061
:10558000C0007200720061047200720072005B045D
:1055900072007200720072005104720072004704BF
:1055A000720072007200720072002D047200020418
:1055B000CE002D042D042D041C041404C000720020
:1055C0009F04900481047F047B04720072007704BE
:1055D000C8006F047200720051047200C8007B683A
:1055E000023341F01D82DBF80430002B00F34C81C4
:1055F0005946F86B05F03EF9002800F04581002D72
:1056000001F04A807B6B002B01F0B481BBF80C30B9
:105610005B0601F168817B6A3BB1D3F80080B8F189
:10562000000F02D0404602F0B7FB786B07F52F77EA
:10563000BD46BDEC028BBDE8F08FDBF80420FC6BAF
:1056400012E002F07FFBDBF800301A7810440133DF
:105650004278120710D5DBF80420CBF80030013A6D
:105660000AF1010ACBF80420002AEADC5946204658
:1056700005F000F90028E4D0C7F8388039E78846FB
:10568000DBF80430002B40F3E286DBF8003018F83A
:10569000012C19789142BED1DBF80420C7F838807C
:1056A0000133013ACBF800300AF1010ACBF80420AB
:1056B0001FE72A07AFD198F8012045F00205884678
:1056C0002FE72B07A7D198F80120884629E7B9636F
:1056D0009A4BFB610A23BB624FF00308DBF80430EE
:1056E000002B40F33283680612D508F1FF38B8F179
:1056F000030F00F22581DFE818F0D30191002100AB
:10570000DB035946F86B05F0B5F800287FF47AAF53
:1057100002F018FBDBF800301A78104401334278AD
:105720001107E2D5DBF80420013A002A0AF1010A48
:10573000CBF80420E5DDCBF80030E9E7631EB3F5D4
:10574000AE7F86BF6FF4AE7204EB02094FF0000922
:1057500007F5AC76C7F82C90D7F828903E6288BF42
:1057600040F25D1445F458654FF00008DBF8001076
:105770000878A0F12B034D2B00F28982DFE813F0AB
:10578000B4028702B40287028702B902720272026F
:1057900072027202720272027202D402D402870290
:1057A000870287028702870287028702AE02AE0263
:1057B000AE02AE02AE02AE02870287028702870205
:1057C0008702870287028702870287028702870291
:1057D00087028702870287028702C8028702870240
:1057E000870287028702870287028702AE02AE0223
:1057F000AE02AE02AE02AE028702870287028702C5
:105800008702870287028702870287028702870250
:1058100087028702870287028702C802002C08BF1E
:105820004FF0FF3415F0010805F0100600F00D856B
:10583000002E40F07B863B6B2A0653F8049B3B63AB
:1058400040F1D787B9F1000F01F0A880802002F065
:105850009BFAF862002801F084807B6AFA6ADD888E
:10586000B3F80480C9F80020454580F0E187186846
:105870007A6A40F825906B1CC7F82090D7F82C90D6
:10588000D3804FF02008002502F05CFADBF80030EE
:105890001B78184443781B0700F1FE86002C00F0AB
:1058A000FB8602F03DFAA8423FF4ACAEDBE90023F0
:1058B000013B12F8011BCBF804307B68CBF80020C9
:1058C00007F5AC70032B07F150034155BB6105F19F
:1058D000010502D13B6D042B04D008220021B869D8
:1058E000FEF73AF8BB69009307F5AC722B464946C0
:1058F000F86B02F0FDFC421C78603FF483AE002898
:105900007FF46DAEC9F8000002F0FCF9002840F009
:10591000B086AA44013C002E41F01C803B6A09F18C
:105920000409002B01F01680FB6AA9EB0305B8EB14
:10593000A50F41F24980354655E600BFC1A10008D8
:10594000002C08BF012405F0100215F00103FA62D3
:1059500000F02D84002A40F0FD853B6B2A0653F8A9
:10596000048B3B6340F14A87B8F1000F01F01680C9
:10597000802002F009FAB861002800F0F287786A06
:10598000BA69C5888388C8F800209D4210D34FF6B5
:10599000F672934201F2298003F10806B100006813
:1059A00003F054F97B6A002800F0468618609E8058
:1059B000796AC7F814800A686B1C42F82580CB808E
:1059C000D7F8188020233B61C7F820A0D7F804A09F
:1059D000002507F5AC7902F0A3F9A8423FF412AE16
:1059E000DBE90012BAF1030F11F8010B09F8050009
:1059F00002F1FF32CBF8001005F10105CBF80420CD
:105A000007F1500602D13368042B04D0082200218C
:105A10003046FDF7A1FF00962B464A464146F86BFB
:105A200002F066FCB0F1FF3F82463FF4EBAD002888
:105A300040F0D385FB6A0BB9C8F800303B6A2B44B1
:105A40003B62FB6A013C002B40F0D9857B693BB18E
:105A5000BB69A8EB03053B69B3EBA50F40F23786A2
:105A600008F104080025DBF80420002A40F3F8843C
:105A7000002CB0D1C7F804A0D7F820A07B693BB1B7
:105A8000BB69A8EB03013B69B3EBA10F00F22187CF
:105A9000FB6A002B7FF42DAD7B6B01337B6328E524
:105AA000002C08BF4FF0FF3405F0100315F001067D
:105AB0003B6200F05A84002B40F043853B6B2D067F
:105AC00053F8048B3B6340F19F86B8F1000F00F060
:105AD0006587802002F058F93861002800F041877E
:105AE000786A3A69C5888388C8F800209D4210D337
:105AF0004FF6F672934200F2788703F10806B10080
:105B0000006803F0A3F87B6A002800F09585186010
